{
  "contractName": "federated",
  "abi": [
    {
      "constant": true,
      "inputs": [
        {
          "internalType": "uint256",
          "name": "",
          "type": "uint256"
        },
        {
          "internalType": "uint256",
          "name": "",
          "type": "uint256"
        }
      ],
      "name": "authorization",
      "outputs": [
        {
          "internalType": "bytes",
          "name": "",
          "type": "bytes"
        }
      ],
      "payable": false,
      "stateMutability": "view",
      "type": "function"
    },
    {
      "constant": true,
      "inputs": [
        {
          "internalType": "uint256",
          "name": "",
          "type": "uint256"
        }
      ],
      "name": "cipher",
      "outputs": [
        {
          "internalType": "bytes32",
          "name": "",
          "type": "bytes32"
        }
      ],
      "payable": false,
      "stateMutability": "view",
      "type": "function"
    },
    {
      "constant": true,
      "inputs": [],
      "name": "pp",
      "outputs": [
        {
          "internalType": "bytes",
          "name": "",
          "type": "bytes"
        }
      ],
      "payable": false,
      "stateMutability": "view",
      "type": "function"
    },
    {
      "constant": true,
      "inputs": [],
      "name": "searchfbpie",
      "outputs": [
        {
          "internalType": "uint256",
          "name": "",
          "type": "uint256"
        }
      ],
      "payable": false,
      "stateMutability": "view",
      "type": "function"
    },
    {
      "constant": true,
      "inputs": [],
      "name": "searchtok",
      "outputs": [
        {
          "internalType": "uint256",
          "name": "",
          "type": "uint256"
        }
      ],
      "payable": false,
      "stateMutability": "view",
      "type": "function"
    },
    {
      "constant": true,
      "inputs": [
        {
          "internalType": "bytes32",
          "name": "",
          "type": "bytes32"
        }
      ],
      "name": "task_index",
      "outputs": [
        {
          "internalType": "bytes32",
          "name": "",
          "type": "bytes32"
        }
      ],
      "payable": false,
      "stateMutability": "view",
      "type": "function"
    },
    {
      "constant": false,
      "inputs": [
        {
          "internalType": "uint256",
          "name": "tok",
          "type": "uint256"
        },
        {
          "internalType": "bytes",
          "name": "authori",
          "type": "bytes"
        }
      ],
      "name": "setauthorize",
      "outputs": [],
      "payable": false,
      "stateMutability": "nonpayable",
      "type": "function"
    },
    {
      "constant": true,
      "inputs": [
        {
          "internalType": "uint256",
          "name": "tok",
          "type": "uint256"
        },
        {
          "internalType": "uint256",
          "name": "index",
          "type": "uint256"
        }
      ],
      "name": "get_authorize",
      "outputs": [
        {
          "internalType": "bytes",
          "name": "",
          "type": "bytes"
        }
      ],
      "payable": false,
      "stateMutability": "view",
      "type": "function"
    },
    {
      "constant": false,
      "inputs": [
        {
          "internalType": "bytes32[]",
          "name": "token",
          "type": "bytes32[]"
        },
        {
          "internalType": "bytes32[]",
          "name": "value",
          "type": "bytes32[]"
        },
        {
          "internalType": "uint256",
          "name": "len",
          "type": "uint256"
        }
      ],
      "name": "set_taskindex",
      "outputs": [],
      "payable": false,
      "stateMutability": "nonpayable",
      "type": "function"
    },
    {
      "constant": false,
      "inputs": [
        {
          "internalType": "bytes32",
          "name": "ctoken",
          "type": "bytes32"
        },
        {
          "internalType": "bytes32",
          "name": "dhash",
          "type": "bytes32"
        }
      ],
      "name": "settask",
      "outputs": [],
      "payable": false,
      "stateMutability": "nonpayable",
      "type": "function"
    },
    {
      "constant": true,
      "inputs": [
        {
          "internalType": "bytes32",
          "name": "tok",
          "type": "bytes32"
        }
      ],
      "name": "get_taskindex",
      "outputs": [
        {
          "internalType": "bytes32",
          "name": "",
          "type": "bytes32"
        }
      ],
      "payable": false,
      "stateMutability": "view",
      "type": "function"
    },
    {
      "constant": true,
      "inputs": [
        {
          "internalType": "bytes",
          "name": "g",
          "type": "bytes"
        },
        {
          "internalType": "uint256",
          "name": "x",
          "type": "uint256"
        },
        {
          "internalType": "bytes",
          "name": "p",
          "type": "bytes"
        }
      ],
      "name": "expmod",
      "outputs": [
        {
          "internalType": "bytes",
          "name": "",
          "type": "bytes"
        }
      ],
      "payable": false,
      "stateMutability": "view",
      "type": "function"
    },
    {
      "constant": false,
      "inputs": [
        {
          "internalType": "bytes",
          "name": "p",
          "type": "bytes"
        }
      ],
      "name": "setP",
      "outputs": [],
      "payable": false,
      "stateMutability": "nonpayable",
      "type": "function"
    },
    {
      "constant": true,
      "inputs": [
        {
          "internalType": "uint256",
          "name": "x",
          "type": "uint256"
        }
      ],
      "name": "toBytes",
      "outputs": [
        {
          "internalType": "bytes32",
          "name": "b",
          "type": "bytes32"
        }
      ],
      "payable": false,
      "stateMutability": "view",
      "type": "function"
    },
    {
      "constant": true,
      "inputs": [
        {
          "internalType": "bytes",
          "name": "a",
          "type": "bytes"
        },
        {
          "internalType": "bytes32",
          "name": "b",
          "type": "bytes32"
        }
      ],
      "name": "concat",
      "outputs": [
        {
          "internalType": "bytes",
          "name": "",
          "type": "bytes"
        }
      ],
      "payable": false,
      "stateMutability": "view",
      "type": "function"
    },
    {
      "constant": false,
      "inputs": [
        {
          "internalType": "uint256",
          "name": "tok",
          "type": "uint256"
        },
        {
          "internalType": "uint256",
          "name": "fbpie",
          "type": "uint256"
        }
      ],
      "name": "get_searchtoke",
      "outputs": [],
      "payable": false,
      "stateMutability": "nonpayable",
      "type": "function"
    },
    {
      "constant": true,
      "inputs": [],
      "name": "get_returnC",
      "outputs": [
        {
          "internalType": "bytes32[]",
          "name": "",
          "type": "bytes32[]"
        }
      ],
      "payable": false,
      "stateMutability": "view",
      "type": "function"
    },
    {
      "constant": false,
      "inputs": [],
      "name": "clear_returnC",
      "outputs": [],
      "payable": false,
      "stateMutability": "nonpayable",
      "type": "function"
    },
    {
      "constant": false,
      "inputs": [
        {
          "internalType": "uint256",
          "name": "tok",
          "type": "uint256"
        },
        {
          "internalType": "uint256",
          "name": "fbpie",
          "type": "uint256"
        }
      ],
      "name": "try1",
      "outputs": [
        {
          "internalType": "bytes32",
          "name": "",
          "type": "bytes32"
        }
      ],
      "payable": false,
      "stateMutability": "nonpayable",
      "type": "function"
    }
  ],
  "bytecode": "0x608060405234801561001057600080fd5b506119fa806100206000396000f3fe608060405234801561001057600080fd5b50600436106101215760003560e01c80637b6a6fd8116100ad578063985407b411610071578063985407b41461087d578063b38eacf314610a52578063cb24ba5814610a70578063e716dcda14610ab2578063ee4fd78414610b1157610121565b80637b6a6fd8146105b55780638061d3251461066657806391327ec61461069e57806393600087146107215780639663deb11461085f57610121565b8063523d2055116100f4578063523d2055146104205780635a75c811146104625780636fd257d4146104a4578063775a8f5e146104ae5780637b0e4143146104f057610121565b80631041f00d1461012657806311291df81461015e57806336b9f5b3146102195780634fe95b6a146102ca575b600080fd5b61015c6004803603604081101561013c57600080fd5b810190808035906020019092919080359060200190929190505050610b5d565b005b6102176004803603602081101561017457600080fd5b810190808035906020019064010000000081111561019157600080fd5b8201836020820111156101a357600080fd5b803590602001918460018302840111640100000000831117156101c557600080fd5b91908080601f016020809104026020016040519081016040528093929190818152602001838380828437600081840152601f19601f820116905080830192505050505050509192919290505050610b79565b005b61024f6004803603604081101561022f57600080fd5b810190808035906020019092919080359060200190929190505050610b93565b6040518080602001828103825283818151815260200191508051906020019080838360005b8381101561028f578082015181840152602081019050610274565b50505050905090810190601f1680156102bc5780820380516001836020036101000a031916815260200191505b509250505060405180910390f35b61041e600480360360608110156102e057600080fd5b81019080803590602001906401000000008111156102fd57600080fd5b82018360208201111561030f57600080fd5b8035906020019184602083028401116401000000008311171561033157600080fd5b919080806020026020016040519081016040528093929190818152602001838360200280828437600081840152601f19601f8201169050808301925050505050505091929192908035906020019064010000000081111561039157600080fd5b8201836020820111156103a357600080fd5b803590602001918460208302840111640100000000831117156103c557600080fd5b919080806020026020016040519081016040528093929190818152602001838360200280828437600081840152601f19601f82011690508083019250505050505050919291929080359060200190929190505050610c5d565b005b61044c6004803603602081101561043657600080fd5b8101908080359060200190929190505050610cc8565b6040518082815260200191505060405180910390f35b61048e6004803603602081101561047857600080fd5b8101908080359060200190929190505050610ce9565b6040518082815260200191505060405180910390f35b6104ac610d06565b005b6104da600480360360208110156104c457600080fd5b8101908080359060200190929190505050610d16565b6040518082815260200191505060405180910390f35b6105b36004803603604081101561050657600080fd5b81019080803590602001909291908035906020019064010000000081111561052d57600080fd5b82018360208201111561053f57600080fd5b8035906020019184600183028401116401000000008311171561056157600080fd5b91908080601f016020809104026020016040519081016040528093929190818152602001838380828437600081840152601f19601f820116905080830192505050505050509192919290505050610d23565b005b6105eb600480360360408110156105cb57600080fd5b810190808035906020019092919080359060200190929190505050610d76565b6040518080602001828103825283818151815260200191508051906020019080838360005b8381101561062b578082015181840152602081019050610610565b50505050905090810190601f1680156106585780820380516001836020036101000a031916815260200191505b509250505060405180910390f35b61069c6004803603604081101561067c57600080fd5b810190808035906020019092919080359060200190929190505050610e3c565b005b6106a661115e565b6040518080602001828103825283818151815260200191508051906020019080838360005b838110156106e65780820151818401526020810190506106cb565b50505050905090810190601f1680156107135780820380516001836020036101000a031916815260200191505b509250505060405180910390f35b6107e46004803603604081101561073757600080fd5b810190808035906020019064010000000081111561075457600080fd5b82018360208201111561076657600080fd5b8035906020019184600183028401116401000000008311171561078857600080fd5b91908080601f016020809104026020016040519081016040528093929190818152602001838380828437600081840152601f19601f820116905080830192505050505050509192919290803590602001909291905050506111fc565b6040518080602001828103825283818151815260200191508051906020019080838360005b83811015610824578082015181840152602081019050610809565b50505050905090810190601f1680156108515780820380516001836020036101000a031916815260200191505b509250505060405180910390f35b610867611279565b6040518082815260200191505060405180910390f35b6109d76004803603606081101561089357600080fd5b81019080803590602001906401000000008111156108b057600080fd5b8201836020820111156108c257600080fd5b803590602001918460018302840111640100000000831117156108e457600080fd5b91908080601f016020809104026020016040519081016040528093929190818152602001838380828437600081840152601f19601f820116905080830192505050505050509192919290803590602001909291908035906020019064010000000081111561095157600080fd5b82018360208201111561096357600080fd5b8035906020019184600183028401116401000000008311171561098557600080fd5b91908080601f016020809104026020016040519081016040528093929190818152602001838380828437600081840152601f19601f82011690508083019250505050505050919291929050505061127f565b6040518080602001828103825283818151815260200191508051906020019080838360005b83811015610a175780820151818401526020810190506109fc565b50505050905090810190601f168015610a445780820380516001836020036101000a031916815260200191505b509250505060405180910390f35b610a5a611607565b6040518082815260200191505060405180910390f35b610a9c60048036036020811015610a8657600080fd5b810190808035906020019092919050505061160d565b6040518082815260200191505060405180910390f35b610aba611625565b6040518080602001828103825283818151815260200191508051906020019060200280838360005b83811015610afd578082015181840152602081019050610ae2565b505050509050019250505060405180910390f35b610b4760048036036040811015610b2757600080fd5b81019080803590602001909291908035906020019092919050505061167d565b6040518082815260200191505060405180910390f35b8060016000848152602001908152602001600020819055505050565b8060059080519060200190610b8f9291906118da565b5050565b60606000808481526020019081526020016000208281548110610bb257fe5b906000526020600020018054600181600116156101000203166002900480601f016020809104026020016040519081016040528092919081815260200182805460018160011615610100020316600290048015610c505780601f10610c2557610100808354040283529160200191610c50565b820191906000526020600020905b815481529060010190602001808311610c3357829003601f168201915b5050505050905092915050565b60008090505b81811015610cc2576000848281518110610c7957fe5b602002602001015190506000848381518110610c9157fe5b6020026020010151905080600160008481526020019081526020016000208190555050508080600101915050610c63565b50505050565b60038181548110610cd557fe5b906000526020600020016000915090505481565b600060016000838152602001908152602001600020549050919050565b60066000610d14919061195a565b565b60008160001b9050919050565b600080838152602001908152602001600020819080600181540180825580915050906001820390600052602060002001600090919290919091509080519060200190610d709291906118da565b50505050565b60006020528160005260406000208181548110610d8f57fe5b90600052602060002001600091509150508054600181600116156101000203166002900480601f016020809104026020016040519081016040528092919081815260200182805460018160011615610100020316600290048015610e345780601f10610e0957610100808354040283529160200191610e34565b820191906000526020600020905b815481529060010190602001808311610e1757829003601f168201915b505050505081565b60008090505b60068110156111595760606000808481526020019081526020016000208281548110610e6a57fe5b906000526020600020018054600181600116156101000203166002900480601f016020809104026020016040519081016040528092919081815260200182805460018160011615610100020316600290048015610f085780601f10610edd57610100808354040283529160200191610f08565b820191906000526020600020905b815481529060010190602001808311610eeb57829003601f168201915b505050505090506060610fb6828660058054600181600116156101000203166002900480601f016020809104026020016040519081016040528092919081815260200182805460018160011615610100020316600290048015610fac5780601f10610f8157610100808354040283529160200191610fac565b820191906000526020600020905b815481529060010190602001808311610f8f57829003601f168201915b505050505061127f565b905060008090506060610fd183610fcc84610d16565b6111fc565b90506000816040516020018082805190602001908083835b6020831061100c5780518252602082019150602081019050602083039250610fe9565b6001836020036101000a03801982511681845116808217855250505050505090500191505060405160208183030381529060405280519060200120905060008060001b90505b8060016000848152602001908152602001600020541461114657600082600160008581526020019081526020016000205418905060068190806001815401808255809150509060018203906000526020600020016000909192909190915055506001850194506110ca866110c587610d16565b6111fc565b9350836040516020018082805190602001908083835b6020831061110357805182526020820191506020810190506020830392506110e0565b6001836020036101000a03801982511681845116808217855250505050505090500191505060405160208183030381529060405280519060200120925050611052565b5050505050508080600101915050610e42565b505050565b60058054600181600116156101000203166002900480601f0160208091040260200160405190810160405280929190818152602001828054600181600116156101000203166002900480156111f45780601f106111c9576101008083540402835291602001916111f4565b820191906000526020600020905b8154815290600101906020018083116111d757829003601f168201915b505050505081565b606082826040516020018083805190602001908083835b602083106112365780518252602082019150602081019050602083039250611213565b6001836020036101000a03801982511681845116808217855250505050505090500182815260200192505050604051602081830303815290604052905092915050565b60045481565b60606101808251146112f9576040517f08c379a00000000000000000000000000000000000000000000000000000000081526004018080602001828103825260178152602001807f756e7175616c6966696564206c656e677468206f66207000000000000000000081525060200191505060405180910390fd5b610180845114611371576040517f08c379a00000000000000000000000000000000000000000000000000000000081526004018080602001828103825260178152602001807f756e7175616c6966696564206c656e677468206f66206700000000000000000081525060200191505060405180910390fd5b6060845160001b6020604051602001808260ff168152602001915050604051602081830303815290604052845160001b878760001b876040516020018087815260200186805190602001908083835b602083106113e357805182526020820191506020810190506020830392506113c0565b6001836020036101000a03801982511681845116808217855250505050505090500185815260200184805190602001908083835b6020831061143a5780518252602082019150602081019050602083039250611417565b6001836020036101000a03801982511681845116808217855250505050505090500183815260200182805190602001908083835b60208310611491578051825260208201915060208101905060208303925061146e565b6001836020036101000a0380198251168184511680821785525050505050509050019650505050505050604051602081830303815290604052905060606101806040519080825280601f01601f1916602001820160405280156115035781602001600182028038833980820191505090505b50905060606101806040519080825280601f01601f19166020018201604052801561153d5781602001600182028038833980820191505090505b509050610180602082016103806020860160056107d05a03fa61155f57600080fd5b60008090505b600c8110156115f95760008082602002905080602085010151915060008090505b60208110156115e95782816020811061159b57fe5b1a60f81b86828401815181106115ad57fe5b60200101907effffffffffffffffffffffffffffffffffffffffffffffffffffffffffffff1916908160001a9053508080600101915050611586565b5050508080600101915050611565565b508193505050509392505050565b60025481565b60016020528060005260406000206000915090505481565b6060600680548060200260200160405190810160405280929190818152602001828054801561167357602002820191906000526020600020905b81548152602001906001019080831161165f575b5050505050905090565b6000606060008084815260200190815260200160002060008154811061169f57fe5b906000526020600020018054600181600116156101000203166002900480601f01602080910402602001604051908101604052809291908181526020018280546001816001161561010002031660029004801561173d5780601f106117125761010080835404028352916020019161173d565b820191906000526020600020905b81548152906001019060200180831161172057829003601f168201915b5050505050905080600a908051906020019061175a9291906118da565b506060611802828660058054600181600116156101000203166002900480601f0160208091040260200160405190810160405280929190818152602001828054600181600116156101000203166002900480156117f85780601f106117cd576101008083540402835291602001916117f8565b820191906000526020600020905b8154815290600101906020018083116117db57829003601f168201915b505050505061127f565b9050806008908051906020019061181a9291906118da565b50600080905060606118348361182f84610d16565b6111fc565b9050806009908051906020019061184c9291906118da565b506000816040516020018082805190602001908083835b602083106118865780518252602082019150602081019050602083039250611863565b6001836020036101000a038019825116818451168082178552505050505050905001915050604051602081830303815290604052805190602001209050806007819055506007549550505050505092915050565b828054600181600116156101000203166002900490600052602060002090601f016020900481019282601f1061191b57805160ff1916838001178555611949565b82800160010185558215611949579182015b8281111561194857825182559160200191906001019061192d565b5b509050611956919061197b565b5090565b508054600082559060005260206000209081019061197891906119a0565b50565b61199d91905b80821115611999576000816000905550600101611981565b5090565b90565b6119c291905b808211156119be5760008160009055506001016119a6565b5090565b9056fea265627a7a72315820c87a2d52f7042f545e62f63d9286cf2be7b263f1882bb689ca4347ec7576815664736f6c63430005100032",
  "source": "pragma solidity >=0.4.22 <=0.6.0;\n\ncontract federated{\n\n    uint256 constant broker_number  = 6;\n    mapping(uint256 =>  bytes []) public authorization;\n    mapping(bytes32 => bytes32) public task_index;\n    uint256 public searchtok;\n    bytes32 [] public cipher;\n    uint public searchfbpie;\n    bytes public pp;\n    bytes32 [] returnC;\n    bytes32 state;\n    bytes exp1;\n    bytes concat1;\n    bytes aut;\n\n    // constructor  () public {\n    //     pp = hex'000000000000000000000000000000000000000000000000000000000000000000000000000000000000000000000000000000000000000000000000000000000000000000000000000000000000000000000000000000000000000000000000000000000000000000000000000000000000000000000000000000000000000000000000000000000000000000000000000000000000000000000000000000000000000000000000000000000000000000000000000000000000000000000000000000000000000000000000000000000000000000000000000000000000000000000000000000000000000000000000000000000000000000000000000000000000000000000000000000000000000000000000000000000000000000000000000000000000000000000000000000000000000000000000000000000000000000000000000000000000000000000000000000000000000000000000000000000000000000000000000000000000000000000000000000000000000000000001';\n    //     task_index[0x0000000000000000000000000000000000000000000000000000000000000000]=0x0000000000000000000000000000000000000000000000000000000000000001;\n    //     bytes memory test = hex\"000000000000000000000000000000000000000000000000000000000000000000000000000000000000000000000000000000000000000000000000000000000000000000000000000000000000000000000000000000000000000000000000000000000000000000000000000000000000000000000000000000000000000000000000000000000000000000000000000000000000000000000000000000000000000000000000000000000000000000000000000000000000000000000000000000000000000000000000000000000000000000000000000000000000000000000000000000000000000000000000000000000000000000000000000000000000000000000000000000000000000000000000000000000000000000000000000000000000000000000000000000000000000000000000000000000000000000000000000000000000000000000000000000000000000000000000000000000000000000000000000000000000000000000000000000000000000000000001\";\n    //     authorization[0].push(test);\n    // }\n\n    ////\n    function setauthorize(uint256 tok, bytes memory authori) public{\n        authorization[tok].push(authori);\n    }\n\n     function get_authorize(uint256 tok, uint256 index ) public view returns (bytes memory){\n        return authorization[tok][index];\n    }\n\n\n    function set_taskindex(bytes32 [] memory token, bytes32 [] memory value, uint len) public{\n        for(uint i=0; i<len; i++) {\n            bytes32 m=token[i];\n            bytes32 n=value[i];\n            task_index[m]=n;\n        }\n    }\n\n     //build task index\n     function settask(bytes32 ctoken, bytes32 dhash) public{\n        task_index[ctoken]=dhash;\n    }\n\n\n    function get_taskindex(bytes32 tok) public view returns (bytes32){\n        return task_index[tok];\n    }\n\n\n    //search token\n     //  \n    function expmod(bytes  memory g, uint256 x, bytes memory p) public view returns ( bytes memory) {\n      require(p.length == 384,\"unqualified length of p\");\n      require(g.length == 384,\"unqualified length of g\");\n      bytes memory input = abi.encodePacked(bytes32(g.length),abi.encode(0x20),bytes32(p.length),g,bytes32(x),p);\n    //   bytes memory result = new bytes(384);\n        bytes memory result = new bytes(384);\n      bytes memory pointer = new bytes(384);\n      assembly {\n          if iszero(staticcall(sub(gas, 2000), 0x05, add(input,0x20), 0x380, add(pointer,0x20), 0x180 )) {\n             revert(0, 0)\n          }\n      }\n      for(uint i =0; i<12;i++) {\n          bytes32 value;\n          uint256 start = 32*i;\n          assembly {\n              value := mload(add(add(pointer,0x20),start))\n          }\n        //   return value;\n          for(uint j=0;j<32;j++) {\n              result[start+j] = value[j];\n          }\n      }\n      return result;\n    }\n\n\n\n    function setP(bytes memory p) public{\n        pp=p;\n    }\n\n\n    //int  bytes\n    // function toBytes(uint256 x) public view returns (bytes32  b) {\n\n    function toBytes(uint256 x) public view returns (bytes32  b) {\n\n     return bytes32(x);\n\n}\n\n\n\n    //\n    function concat(bytes memory a, bytes32 b) public view returns (bytes memory) {\n        return abi.encodePacked(a,b);\n    }\n\n    //search function\n     function get_searchtoke (uint256 tok, uint256 fbpie) public  {\n         for(uint i=0;i<broker_number;i++){\n             bytes memory autho=authorization[fbpie][i];\n             //\n             bytes memory exp=expmod(autho, tok, pp);\n             uint256 c=0;\n             bytes memory concatination=concat(exp,toBytes(c));\n\n             bytes32  G1label=  keccak256(abi.encodePacked(concatination));\n\n             bytes32 stop = 0x0;\n             while (task_index[G1label]!= stop){\n                 bytes32  ciphertext=task_index[G1label]^G1label;\n                 returnC.push(ciphertext);\n                // ctest.push(ciphertext);\n                 c=c+1;\n                 concatination=concat(exp,toBytes(c));\n                 G1label=keccak256(abi.encodePacked(concatination));\n             }\n         }\n        //  return ctest;\n     }\n\n\n    function  get_returnC() public view returns (bytes32[] memory){\n        return returnC;\n    }\n\n    function clear_returnC() public {\n        delete(returnC);\n    }\n\n    function try1 (uint256 tok, uint256 fbpie) public returns (bytes32)  {\n\n        bytes memory autho=authorization[fbpie][0];\n        aut=autho;\n            //\n        bytes memory exp=expmod(autho, tok, pp);\n\n        exp1=exp;\n        uint256 c=0;\n        bytes memory concatination=concat(exp,toBytes(c));\n        concat1=concatination;\n\n        bytes32 G1label=  keccak256(abi.encodePacked(concatination));\n        state=G1label;\n        return state;\n    }\n\n    // function get_autho()public view returns (bytes){\n    //     return aut;\n    // }\n\n    // function get_exp1() public view returns (bytes){\n    //     return exp1;\n    // }\n\n    // function get_concat1() public view returns (bytes){\n    //     return concat1;\n    // }\n\n\n    // function get_G1label() public view returns (bytes32){\n    //     return state;\n    // }\n\n    }",
  "sourcePath": "/Users/yuzhemeng/PycharmProjects/IWQOS2020/contracts/IWQOS.sol",
  "compiler": {
    "name": "solc",
    "version": "0.5.16+commit.9c3226ce.Emscripten.clang"
  },
  "schemaVersion": "3.4.16",
  "updatedAt": "2024-01-24T08:13:45.002Z",
  "devdoc": {
    "methods": {}
  },
  "userdoc": {
    "methods": {
      "setauthorize(uint256,bytes)": {
        "notice": "/"
      }
    }
  }
}