{
  "contractName": "write",
  "abi": [
    {
      "constant": true,
      "inputs": [
        {
          "internalType": "uint256",
          "name": "",
          "type": "uint256"
        },
        {
          "internalType": "uint256",
          "name": "",
          "type": "uint256"
        }
      ],
      "name": "ST_w",
      "outputs": [
        {
          "internalType": "bytes",
          "name": "",
          "type": "bytes"
        }
      ],
      "payable": false,
      "stateMutability": "view",
      "type": "function"
    },
    {
      "constant": true,
      "inputs": [
        {
          "internalType": "uint256",
          "name": "",
          "type": "uint256"
        }
      ],
      "name": "access_policy",
      "outputs": [
        {
          "internalType": "bytes",
          "name": "",
          "type": "bytes"
        }
      ],
      "payable": false,
      "stateMutability": "view",
      "type": "function"
    },
    {
      "constant": true,
      "inputs": [
        {
          "internalType": "uint256",
          "name": "",
          "type": "uint256"
        }
      ],
      "name": "c1",
      "outputs": [
        {
          "internalType": "bytes",
          "name": "",
          "type": "bytes"
        }
      ],
      "payable": false,
      "stateMutability": "view",
      "type": "function"
    },
    {
      "constant": true,
      "inputs": [
        {
          "internalType": "uint256",
          "name": "",
          "type": "uint256"
        }
      ],
      "name": "c2",
      "outputs": [
        {
          "internalType": "bytes",
          "name": "",
          "type": "bytes"
        }
      ],
      "payable": false,
      "stateMutability": "view",
      "type": "function"
    },
    {
      "constant": true,
      "inputs": [
        {
          "internalType": "uint256",
          "name": "",
          "type": "uint256"
        }
      ],
      "name": "c3",
      "outputs": [
        {
          "internalType": "bytes",
          "name": "",
          "type": "bytes"
        }
      ],
      "payable": false,
      "stateMutability": "view",
      "type": "function"
    },
    {
      "constant": true,
      "inputs": [],
      "name": "pp",
      "outputs": [
        {
          "internalType": "bytes",
          "name": "",
          "type": "bytes"
        }
      ],
      "payable": false,
      "stateMutability": "view",
      "type": "function"
    },
    {
      "constant": true,
      "inputs": [
        {
          "internalType": "uint256",
          "name": "",
          "type": "uint256"
        }
      ],
      "name": "returnR_u",
      "outputs": [
        {
          "internalType": "bytes32",
          "name": "",
          "type": "bytes32"
        }
      ],
      "payable": false,
      "stateMutability": "view",
      "type": "function"
    },
    {
      "constant": true,
      "inputs": [
        {
          "internalType": "uint256",
          "name": "",
          "type": "uint256"
        }
      ],
      "name": "test_addr",
      "outputs": [
        {
          "internalType": "bytes",
          "name": "",
          "type": "bytes"
        }
      ],
      "payable": false,
      "stateMutability": "view",
      "type": "function"
    },
    {
      "constant": false,
      "inputs": [
        {
          "internalType": "bytes16[]",
          "name": "ff",
          "type": "bytes16[]"
        },
        {
          "internalType": "uint256",
          "name": "len",
          "type": "uint256"
        }
      ],
      "name": "set_FF",
      "outputs": [],
      "payable": false,
      "stateMutability": "nonpayable",
      "type": "function"
    },
    {
      "constant": false,
      "inputs": [
        {
          "internalType": "bytes16",
          "name": "s",
          "type": "bytes16"
        }
      ],
      "name": "set_stag",
      "outputs": [],
      "payable": false,
      "stateMutability": "nonpayable",
      "type": "function"
    },
    {
      "constant": true,
      "inputs": [
        {
          "internalType": "uint256",
          "name": "number",
          "type": "uint256"
        }
      ],
      "name": "random",
      "outputs": [
        {
          "internalType": "uint256",
          "name": "",
          "type": "uint256"
        }
      ],
      "payable": false,
      "stateMutability": "view",
      "type": "function"
    },
    {
      "constant": false,
      "inputs": [
        {
          "internalType": "bytes[]",
          "name": "ap",
          "type": "bytes[]"
        },
        {
          "internalType": "uint256",
          "name": "len",
          "type": "uint256"
        }
      ],
      "name": "set_access_policy",
      "outputs": [],
      "payable": false,
      "stateMutability": "nonpayable",
      "type": "function"
    },
    {
      "constant": false,
      "inputs": [
        {
          "internalType": "bytes[]",
          "name": "_c1",
          "type": "bytes[]"
        },
        {
          "internalType": "uint256",
          "name": "len",
          "type": "uint256"
        }
      ],
      "name": "set_c1",
      "outputs": [],
      "payable": false,
      "stateMutability": "nonpayable",
      "type": "function"
    },
    {
      "constant": false,
      "inputs": [
        {
          "internalType": "bytes[]",
          "name": "_c2",
          "type": "bytes[]"
        },
        {
          "internalType": "uint256",
          "name": "len",
          "type": "uint256"
        }
      ],
      "name": "set_c2",
      "outputs": [],
      "payable": false,
      "stateMutability": "nonpayable",
      "type": "function"
    },
    {
      "constant": false,
      "inputs": [
        {
          "internalType": "bytes[]",
          "name": "_c3",
          "type": "bytes[]"
        },
        {
          "internalType": "uint256",
          "name": "len",
          "type": "uint256"
        }
      ],
      "name": "set_c3",
      "outputs": [],
      "payable": false,
      "stateMutability": "nonpayable",
      "type": "function"
    },
    {
      "constant": false,
      "inputs": [
        {
          "internalType": "bytes32[]",
          "name": "addr",
          "type": "bytes32[]"
        },
        {
          "internalType": "bytes32[]",
          "name": "val",
          "type": "bytes32[]"
        },
        {
          "internalType": "uint256",
          "name": "len",
          "type": "uint256"
        }
      ],
      "name": "set_ETID_val",
      "outputs": [],
      "payable": false,
      "stateMutability": "nonpayable",
      "type": "function"
    },
    {
      "constant": false,
      "inputs": [
        {
          "internalType": "bytes32[]",
          "name": "addr",
          "type": "bytes32[]"
        },
        {
          "internalType": "uint256[]",
          "name": "y",
          "type": "uint256[]"
        },
        {
          "internalType": "uint256",
          "name": "len",
          "type": "uint256"
        }
      ],
      "name": "set_ETID_y",
      "outputs": [],
      "payable": false,
      "stateMutability": "nonpayable",
      "type": "function"
    },
    {
      "constant": false,
      "inputs": [
        {
          "internalType": "bytes[]",
          "name": "xtags",
          "type": "bytes[]"
        },
        {
          "internalType": "uint256",
          "name": "_len",
          "type": "uint256"
        }
      ],
      "name": "XSET_add",
      "outputs": [],
      "payable": false,
      "stateMutability": "nonpayable",
      "type": "function"
    },
    {
      "constant": true,
      "inputs": [
        {
          "internalType": "bytes",
          "name": "b",
          "type": "bytes"
        }
      ],
      "name": "XSET_exist",
      "outputs": [
        {
          "internalType": "bool",
          "name": "",
          "type": "bool"
        }
      ],
      "payable": false,
      "stateMutability": "view",
      "type": "function"
    },
    {
      "constant": true,
      "inputs": [],
      "name": "get_returnR_u",
      "outputs": [
        {
          "internalType": "bytes32[]",
          "name": "",
          "type": "bytes32[]"
        }
      ],
      "payable": false,
      "stateMutability": "view",
      "type": "function"
    },
    {
      "constant": true,
      "inputs": [],
      "name": "get_test_addr",
      "outputs": [
        {
          "internalType": "bytes[]",
          "name": "",
          "type": "bytes[]"
        }
      ],
      "payable": false,
      "stateMutability": "view",
      "type": "function"
    },
    {
      "constant": true,
      "inputs": [],
      "name": "get_code",
      "outputs": [
        {
          "internalType": "uint256",
          "name": "",
          "type": "uint256"
        }
      ],
      "payable": false,
      "stateMutability": "view",
      "type": "function"
    },
    {
      "constant": false,
      "inputs": [
        {
          "internalType": "uint256",
          "name": "_c",
          "type": "uint256"
        },
        {
          "internalType": "bytes[]",
          "name": "_searchtoken",
          "type": "bytes[]"
        },
        {
          "internalType": "uint256",
          "name": "_per_token_number",
          "type": "uint256"
        }
      ],
      "name": "set_ST_w",
      "outputs": [],
      "payable": false,
      "stateMutability": "nonpayable",
      "type": "function"
    },
    {
      "constant": true,
      "inputs": [
        {
          "internalType": "bytes",
          "name": "g",
          "type": "bytes"
        },
        {
          "internalType": "uint256",
          "name": "x",
          "type": "uint256"
        },
        {
          "internalType": "bytes",
          "name": "p",
          "type": "bytes"
        }
      ],
      "name": "expmod",
      "outputs": [
        {
          "internalType": "bytes",
          "name": "",
          "type": "bytes"
        }
      ],
      "payable": false,
      "stateMutability": "view",
      "type": "function"
    },
    {
      "constant": true,
      "inputs": [
        {
          "internalType": "bytes16",
          "name": "_a",
          "type": "bytes16"
        },
        {
          "internalType": "bytes16",
          "name": "_b",
          "type": "bytes16"
        },
        {
          "internalType": "bytes",
          "name": "_c",
          "type": "bytes"
        },
        {
          "internalType": "bytes",
          "name": "_d",
          "type": "bytes"
        }
      ],
      "name": "concate",
      "outputs": [
        {
          "internalType": "bytes",
          "name": "",
          "type": "bytes"
        }
      ],
      "payable": false,
      "stateMutability": "view",
      "type": "function"
    },
    {
      "constant": false,
      "inputs": [
        {
          "internalType": "uint256",
          "name": "x",
          "type": "uint256"
        }
      ],
      "name": "toBytes",
      "outputs": [
        {
          "internalType": "bytes",
          "name": "b",
          "type": "bytes"
        }
      ],
      "payable": false,
      "stateMutability": "nonpayable",
      "type": "function"
    },
    {
      "constant": false,
      "inputs": [
        {
          "internalType": "uint32",
          "name": "cnt_max",
          "type": "uint32"
        },
        {
          "internalType": "uint256",
          "name": "FF_len",
          "type": "uint256"
        },
        {
          "internalType": "uint256",
          "name": "n",
          "type": "uint256"
        }
      ],
      "name": "TaskMatching",
      "outputs": [],
      "payable": false,
      "stateMutability": "nonpayable",
      "type": "function"
    }
  ],
  "bytecode": "0x6080604052604051806101a00160405280610180815260200162002c49610180913960099080519060200190620000389291906200004d565b503480156200004657600080fd5b50620000fc565b828054600181600116156101000203166002900490600052602060002090601f016020900481019282601f106200009057805160ff1916838001178555620000c1565b82800160010185558215620000c1579182015b82811115620000c0578251825591602001919060010190620000a3565b5b509050620000d09190620000d4565b5090565b620000f991905b80821115620000f5576000816000905550600101620000db565b5090565b90565b612b3d806200010c6000396000f3fe608060405234801561001057600080fd5b50600436106101a95760003560e01c80637cb13324116100f9578063b42840a111610097578063cd20439611610071578063cd20439614610516578063cd8a2a5214610546578063dad3e37914610562578063eaa517ca1461057e576101a9565b8063b42840a1146104ac578063b863bd37146104ca578063c3a3b0ef146104fa576101a9565b806391327ec6116100d357806391327ec6146103fe578063985407b41461041c57806399c092171461044c578063aec927841461047c576101a9565b80637cb13324146103945780638f0d5665146103c4578063904191a9146103e0576101a9565b806323f4761a116101665780634facb648116101405780634facb648146102fc578063635a9a191461031857806366eb103614610334578063775a8f5e14610364576101a9565b806323f4761a146102945780632c7f77d5146102c4578063444834fd146102e0576101a9565b806301d9c97b146101ae578063034b9700146101ca5780631828e717146101fa5780631bd962a1146102185780631d2754061461024857806320078e3814610264575b600080fd5b6101c860048036036101c39190810190611ef1565b61059a565b005b6101e460048036036101df9190810190611fad565b6105c7565b6040516101f19190612654565b60405180910390f35b6102026105ff565b60405161020f9190612749565b60405180910390f35b610232600480360361022d91908101906120fd565b610609565b60405161023f919061268a565b60405180910390f35b610262600480360361025d9190810190612139565b6106cf565b005b61027e60048036036102799190810190611f1a565b610c63565b60405161028b91906126ac565b60405180910390f35b6102ae60048036036102a9919081019061206d565b610c95565b6040516102bb919061268a565b60405180910390f35b6102de60048036036102d99190810190611d4b565b610d4e565b005b6102fa60048036036102f59190810190611e1e565b610dd9565b005b61031660048036036103119190810190611e9d565b610e36565b005b610332600480360361032d9190810190611e9d565b610ea6565b005b61034e6004803603610349919081019061206d565b610f16565b60405161035b919061268a565b60405180910390f35b61037e6004803603610379919081019061206d565b610fcf565b60405161038b91906126ac565b60405180910390f35b6103ae60048036036103a9919081019061206d565b611013565b6040516103bb919061268a565b60405180910390f35b6103de60048036036103d99190810190611e9d565b6110cc565b005b6103e86111d5565b6040516103f59190612632565b60405180910390f35b6104066112be565b604051610413919061268a565b60405180910390f35b61043660048036036104319190810190611fee565b61135c565b60405161044391906126ac565b60405180910390f35b6104666004803603610461919081019061206d565b6115c1565b604051610473919061268a565b60405180910390f35b6104966004803603610491919081019061206d565b61167a565b6040516104a3919061268a565b60405180910390f35b6104b4611733565b6040516104c19190612610565b60405180910390f35b6104e460048036036104df919081019061206d565b61178b565b6040516104f19190612749565b60405180910390f35b610514600480360361050f9190810190611e9d565b6117cb565b005b610530600480360361052b919081019061206d565b61183b565b60405161053d919061266f565b60405180910390f35b610560600480360361055b9190810190612096565b61185c565b005b61057c60048036036105779190810190611e9d565b6118e0565b005b61059860048036036105939190810190611d9f565b611950565b005b80601060006101000a8154816fffffffffffffffffffffffffffffffff021916908360801c021790555050565b6000600a600101826040516105dc91906125bc565b908152602001604051809103902060009054906101000a900460ff169050919050565b6000600e54905090565b6008602052816000526040600020818154811061062257fe5b90600052602060002001600091509150508054600181600116156101000203166002900480601f0160208091040260200160405190810160405280929190818152602001828054600181600116156101000203166002900480156106c75780601f1061069c576101008083540402835291602001916106c7565b820191906000526020600020905b8154815290600101906020018083116106aa57829003601f168201915b505050505081565b6000600e8190555060008090505b82811015610c5d576000600190505b8463ffffffff168111610c51576060600f6040519080825280601f01601f19166020018201604052801561072f5781602001600182028038833980820191505090505b509050606061073d83610fcf565b905060008090505b600f8110156107b1578181601f038151811061075d57fe5b602001015160f81c60f81b8382600e038151811061077757fe5b60200101907effffffffffffffffffffffffffffffffffffffffffffffffffffffffffffff1916908160001a905350806001019050610745565b50606060016040519080825280601f01601f1916602001820160405280156107e85781602001600182028038833980820191505090505b509050600060f81b816000815181106107fd57fe5b60200101907effffffffffffffffffffffffffffffffffffffffffffffffffffffffffffff1916908160001a9053506060610878601060009054906101000a900460801b600f888154811061084e57fe5b90600052602060002090600291828204019190066010029054906101000a900460801b8685610c63565b905060008160405160200161088d91906125bc565b6040516020818303038152906040528051906020012090506000801b600460008381526020019081526020016000205414610c37576001600e8190555060006004600083815260200190815260200160002054905060006005600084815260200190815260200160002054905060008090506000600190505b8b811015610af0576060600860008c8152602001908152602001600020828154811061092e57fe5b906000526020600020018054600181600116156101000203166002900480601f0160208091040260200160405190810160405280929190818152602001828054600181600116156101000203166002900480156109cc5780601f106109a1576101008083540402835291602001916109cc565b820191906000526020600020905b8154815290600101906020018083116109af57829003601f168201915b505050505090506060610a7a828660098054600181600116156101000203166002900480601f016020809104026020016040519081016040528092919081815260200182805460018160011615610100020316600290048015610a705780601f10610a4557610100808354040283529160200191610a70565b820191906000526020600020905b815481529060010190602001808311610a5357829003601f168201915b505050505061135c565b9050600d819080600181540180825580915050906001820390600052602060002001600090919290919091509080519060200190610ab99291906119ad565b5050610ac4816105c7565b15610adc576002600e81905550600184019350610ae3565b5050610af0565b5050806001019050610906565b5060018b03811415610c2f576002600e81905550606060016040519080825280601f01601f191660200182016040528015610b3a5781602001600182028038833980820191505090505b509050600160f81b81600081518110610b4f57fe5b60200101907effffffffffffffffffffffffffffffffffffffffffffffffffffffffffffff1916908160001a9053506060610bca601060009054906101000a900460801b600f8e81548110610ba057fe5b90600052602060002090600291828204019190066010029054906101000a900460801b8c85610c63565b9050600081604051602001610bdf91906125bc565b60405160208183030381529060405280519060200120905060008187189050600c819080600181540180825580915050906001820390600052602060002001600090919290919091505550505050505b505050610c41565b5050505050610c51565b50505050508060010190506106ec565b508060010190506106dd565b50505050565b606084848484604051602001610c7c94939291906124fb565b6040516020818303038152906040529050949350505050565b60028181548110610ca257fe5b906000526020600020016000915090508054600181600116156101000203166002900480601f016020809104026020016040519081016040528092919081815260200182805460018160011615610100020316600290048015610d465780601f10610d1b57610100808354040283529160200191610d46565b820191906000526020600020905b815481529060010190602001808311610d2957829003601f168201915b505050505081565b60008090505b81811015610dd457600f838281518110610d6a57fe5b6020026020010151908060018154018082558091505090600182039060005260206000209060029182820401919006601002909192909190916101000a8154816fffffffffffffffffffffffffffffffff021916908360801c021790555050806001019050610d54565b505050565b60008090505b81811015610e3057828181518110610df357fe5b602002602001015160056000868481518110610e0b57fe5b6020026020010151815260200190815260200160002081905550806001019050610ddf565b50505050565b60008090505b81811015610ea1576002838281518110610e5257fe5b60200260200101519080600181540180825580915050906001820390600052602060002001600090919290919091509080519060200190610e949291906119ad565b5050806001019050610e3c565b505050565b60008090505b81811015610f11576000838281518110610ec257fe5b60200260200101519080600181540180825580915050906001820390600052602060002001600090919290919091509080519060200190610f049291906119ad565b5050806001019050610eac565b505050565b60018181548110610f2357fe5b906000526020600020016000915090508054600181600116156101000203166002900480601f016020809104026020016040519081016040528092919081815260200182805460018160011615610100020316600290048015610fc75780601f10610f9c57610100808354040283529160200191610fc7565b820191906000526020600020905b815481529060010190602001808311610faa57829003601f168201915b505050505081565b606060206040519080825280601f01601f1916602001820160405280156110055781602001600182028038833980820191505090505b509050816020820152919050565b6003818154811061102057fe5b906000526020600020016000915090508054600181600116156101000203166002900480601f0160208091040260200160405190810160405280929190818152602001828054600181600116156101000203166002900480156110c45780601f10611099576101008083540402835291602001916110c4565b820191906000526020600020905b8154815290600101906020018083116110a757829003601f168201915b505050505081565b60008090505b818110156111d057600a6001018382815181106110eb57fe5b602002602001015160405161110091906125a5565b908152602001604051809103902060009054906101000a900460ff166111c357600a60000183828151811061113157fe5b602002602001015190806001815401808255809150509060018203906000526020600020016000909192909190915090805190602001906111739291906119ad565b50506001600a60010184838151811061118857fe5b602002602001015160405161119d91906125a5565b908152602001604051809103902060006101000a81548160ff0219169083151502179055505b80806001019150506110d2565b505050565b6060600d805480602002602001604051908101604052809291908181526020016000905b828210156112b5578382906000526020600020018054600181600116156101000203166002900480601f0160208091040260200160405190810160405280929190818152602001828054600181600116156101000203166002900480156112a15780601f10611276576101008083540402835291602001916112a1565b820191906000526020600020905b81548152906001019060200180831161128457829003601f168201915b5050505050815260200190600101906111f9565b50505050905090565b60098054600181600116156101000203166002900480601f0160208091040260200160405190810160405280929190818152602001828054600181600116156101000203166002900480156113545780601f1061132957610100808354040283529160200191611354565b820191906000526020600020905b81548152906001019060200180831161133757829003601f168201915b505050505081565b60606101808451146113a3576040517f08c379a000000000000000000000000000000000000000000000000000000000815260040161139a90612709565b60405180910390fd5b6101808251146113e8576040517f08c379a00000000000000000000000000000000000000000000000000000000081526004016113df90612729565b60405180910390fd5b6060845160001b602060405160200161140191906126ce565b604051602081830303815290604052845160001b878760001b8760405160200161143096959493929190612541565b604051602081830303815290604052905060606101806040519080825280601f01601f1916602001820160405280156114785781602001600182028038833980820191505090505b50905060606101806040519080825280601f01601f1916602001820160405280156114b25781602001600182028038833980820191505090505b509050610180602082016103806020860160056107d05a03fa6114d457600080fd5b60008090505b600c81101561156e5760008082602002905080602085010151915060008090505b602081101561155e5782816020811061151057fe5b1a60f81b868284018151811061152257fe5b60200101907effffffffffffffffffffffffffffffffffffffffffffffffffffffffffffff1916908160001a90535080806001019150506114fb565b50505080806001019150506114da565b506101808251146115b4576040517f08c379a00000000000000000000000000000000000000000000000000000000081526004016115ab906126e9565b60405180910390fd5b8193505050509392505050565b600081815481106115ce57fe5b906000526020600020016000915090508054600181600116156101000203166002900480601f0160208091040260200160405190810160405280929190818152602001828054600181600116156101000203166002900480156116725780601f1061164757610100808354040283529160200191611672565b820191906000526020600020905b81548152906001019060200180831161165557829003601f168201915b505050505081565b600d818154811061168757fe5b906000526020600020016000915090508054600181600116156101000203166002900480601f01602080910402602001604051908101604052809291908181526020018280546001816001161561010002031660029004801561172b5780601f106117005761010080835404028352916020019161172b565b820191906000526020600020905b81548152906001019060200180831161170e57829003601f168201915b505050505081565b6060600c80548060200260200160405190810160405280929190818152602001828054801561178157602002820191906000526020600020905b81548152602001906001019080831161176d575b5050505050905090565b6000814244336040516020016117a3939291906125d3565b6040516020818303038152906040528051906020012060001c816117c357fe5b069050919050565b60008090505b818110156118365760038382815181106117e757fe5b602002602001015190806001815401808255809150509060018203906000526020600020016000909192909190915090805190602001906118299291906119ad565b50508060010190506117d1565b505050565b600c818154811061184857fe5b906000526020600020016000915090505481565b60008090505b818110156118da576008600085815260200190815260200160002083828151811061188957fe5b602002602001015190806001815401808255809150509060018203906000526020600020016000909192909190915090805190602001906118cb9291906119ad565b50508080600101915050611862565b50505050565b60008090505b8181101561194b5760018382815181106118fc57fe5b6020026020010151908060018154018082558091505090600182039060005260206000200160009091929091909150908051906020019061193e9291906119ad565b50508060010190506118e6565b505050565b60008090505b818110156119a75782818151811061196a57fe5b60200260200101516004600086848151811061198257fe5b6020026020010151815260200190815260200160002081905550806001019050611956565b50505050565b828054600181600116156101000203166002900490600052602060002090601f016020900481019282601f106119ee57805160ff1916838001178555611a1c565b82800160010185558215611a1c579182015b82811115611a1b578251825591602001919060010190611a00565b5b509050611a299190611a2d565b5090565b611a4f91905b80821115611a4b576000816000905550600101611a33565b5090565b90565b600082601f830112611a6357600080fd5b8135611a76611a7182612791565b612764565b91508181835260208401935060208101905083856020840282011115611a9b57600080fd5b60005b83811015611acb5781611ab18882611c4f565b845260208401935060208301925050600181019050611a9e565b5050505092915050565b600082601f830112611ae657600080fd5b8135611af9611af4826127b9565b612764565b91508181835260208401935060208101905083856020840282011115611b1e57600080fd5b60005b83811015611b4e5781611b348882611c64565b845260208401935060208301925050600181019050611b21565b5050505092915050565b600082601f830112611b6957600080fd5b8135611b7c611b77826127e1565b612764565b9150818183526020840193506020810190508360005b83811015611bc25781358601611ba88882611c79565b845260208401935060208301925050600181019050611b92565b5050505092915050565b600082601f830112611bdd57600080fd5b8135611bf0611beb82612809565b612764565b91508181835260208401935060208101905083856020840282011115611c1557600080fd5b60005b83811015611c455781611c2b8882611d21565b845260208401935060208301925050600181019050611c18565b5050505092915050565b600081359050611c5e81612a9e565b92915050565b600081359050611c7381612ab5565b92915050565b600082601f830112611c8a57600080fd5b8135611c9d611c9882612831565b612764565b91508082526020830160208301858383011115611cb957600080fd5b611cc48382846129fc565b50505092915050565b600082601f830112611cde57600080fd5b8135611cf1611cec8261285d565b612764565b91508082526020830160208301858383011115611d0d57600080fd5b611d188382846129fc565b50505092915050565b600081359050611d3081612acc565b92915050565b600081359050611d4581612ae3565b92915050565b60008060408385031215611d5e57600080fd5b600083013567ffffffffffffffff811115611d7857600080fd5b611d8485828601611a52565b9250506020611d9585828601611d21565b9150509250929050565b600080600060608486031215611db457600080fd5b600084013567ffffffffffffffff811115611dce57600080fd5b611dda86828701611ad5565b935050602084013567ffffffffffffffff811115611df757600080fd5b611e0386828701611ad5565b9250506040611e1486828701611d21565b9150509250925092565b600080600060608486031215611e3357600080fd5b600084013567ffffffffffffffff811115611e4d57600080fd5b611e5986828701611ad5565b935050602084013567ffffffffffffffff811115611e7657600080fd5b611e8286828701611bcc565b9250506040611e9386828701611d21565b9150509250925092565b60008060408385031215611eb057600080fd5b600083013567ffffffffffffffff811115611eca57600080fd5b611ed685828601611b58565b9250506020611ee785828601611d21565b9150509250929050565b600060208284031215611f0357600080fd5b6000611f1184828501611c4f565b91505092915050565b60008060008060808587031215611f3057600080fd5b6000611f3e87828801611c4f565b9450506020611f4f87828801611c4f565b935050604085013567ffffffffffffffff811115611f6c57600080fd5b611f7887828801611ccd565b925050606085013567ffffffffffffffff811115611f9557600080fd5b611fa187828801611ccd565b91505092959194509250565b600060208284031215611fbf57600080fd5b600082013567ffffffffffffffff811115611fd957600080fd5b611fe584828501611ccd565b91505092915050565b60008060006060848603121561200357600080fd5b600084013567ffffffffffffffff81111561201d57600080fd5b61202986828701611ccd565b935050602061203a86828701611d21565b925050604084013567ffffffffffffffff81111561205757600080fd5b61206386828701611ccd565b9150509250925092565b60006020828403121561207f57600080fd5b600061208d84828501611d21565b91505092915050565b6000806000606084860312156120ab57600080fd5b60006120b986828701611d21565b935050602084013567ffffffffffffffff8111156120d657600080fd5b6120e286828701611b58565b92505060406120f386828701611d21565b9150509250925092565b6000806040838503121561211057600080fd5b600061211e85828601611d21565b925050602061212f85828601611d21565b9150509250929050565b60008060006060848603121561214e57600080fd5b600061215c86828701611d36565b935050602061216d86828701611d21565b925050604061217e86828701611d21565b9150509250925092565b600061219483836122c4565b60208301905092915050565b60006121ac8383612363565b905092915050565b6121c56121c08261294f565b612a3e565b82525050565b60006121d6826128a9565b6121e081856128ef565b93506121eb83612889565b8060005b8381101561221c5781516122038882612188565b975061220e836128d5565b9250506001810190506121ef565b5085935050505092915050565b6000612234826128b4565b61223e8185612900565b93508360208202850161225085612899565b8060005b8581101561228c578484038952815161226d85826121a0565b9450612278836128e2565b925060208a01995050600181019050612254565b50829750879550505050505092915050565b6122a781612961565b82525050565b6122be6122b98261296d565b612a50565b82525050565b6122cd81612999565b82525050565b6122dc81612999565b82525050565b6122f36122ee82612999565b612a5a565b82525050565b6000612304826128ca565b61230e8185612922565b935061231e818560208601612a0b565b61232781612a80565b840191505092915050565b600061233d826128ca565b6123478185612933565b9350612357818560208601612a0b565b80840191505092915050565b600061236e826128bf565b6123788185612911565b9350612388818560208601612a0b565b61239181612a80565b840191505092915050565b60006123a7826128bf565b6123b18185612922565b93506123c1818560208601612a0b565b6123ca81612a80565b840191505092915050565b60006123e0826128bf565b6123ea8185612933565b93506123fa818560208601612a0b565b80840191505092915050565b61240f816129ea565b82525050565b6000612422601c8361293e565b91507f756e7175616c6966696564206c656e677468206f6620726573756c74000000006000830152602082019050919050565b600061246260178361293e565b91507f756e7175616c6966696564206c656e677468206f6620670000000000000000006000830152602082019050919050565b60006124a260178361293e565b91507f756e7175616c6966696564206c656e677468206f6620700000000000000000006000830152602082019050919050565b6124de816129c3565b82525050565b6124f56124f0826129c3565b612a76565b82525050565b600061250782876122ad565b60108201915061251782866122ad565b6010820191506125278285612332565b91506125338284612332565b915081905095945050505050565b600061254d82896122e2565b60208201915061255d8288612332565b915061256982876122e2565b6020820191506125798286612332565b915061258582856122e2565b6020820191506125958284612332565b9150819050979650505050505050565b60006125b182846123d5565b915081905092915050565b60006125c88284612332565b915081905092915050565b60006125df82866124e4565b6020820191506125ef82856124e4565b6020820191506125ff82846121b4565b601482019150819050949350505050565b6000602082019050818103600083015261262a81846121cb565b905092915050565b6000602082019050818103600083015261264c8184612229565b905092915050565b6000602082019050612669600083018461229e565b92915050565b600060208201905061268460008301846122d3565b92915050565b600060208201905081810360008301526126a4818461239c565b905092915050565b600060208201905081810360008301526126c681846122f9565b905092915050565b60006020820190506126e36000830184612406565b92915050565b6000602082019050818103600083015261270281612415565b9050919050565b6000602082019050818103600083015261272281612455565b9050919050565b6000602082019050818103600083015261274281612495565b9050919050565b600060208201905061275e60008301846124d5565b92915050565b6000604051905081810181811067ffffffffffffffff8211171561278757600080fd5b8060405250919050565b600067ffffffffffffffff8211156127a857600080fd5b602082029050602081019050919050565b600067ffffffffffffffff8211156127d057600080fd5b602082029050602081019050919050565b600067ffffffffffffffff8211156127f857600080fd5b602082029050602081019050919050565b600067ffffffffffffffff82111561282057600080fd5b602082029050602081019050919050565b600067ffffffffffffffff82111561284857600080fd5b601f19601f8301169050602081019050919050565b600067ffffffffffffffff82111561287457600080fd5b601f19601f8301169050602081019050919050565b6000819050602082019050919050565b6000819050602082019050919050565b600081519050919050565b600081519050919050565b600081519050919050565b600081519050919050565b6000602082019050919050565b6000602082019050919050565b600082825260208201905092915050565b600082825260208201905092915050565b600082825260208201905092915050565b600082825260208201905092915050565b600081905092915050565b600082825260208201905092915050565b600061295a826129a3565b9050919050565b60008115159050919050565b60007fffffffffffffffffffffffffffffffff0000000000000000000000000000000082169050919050565b6000819050919050565b600073ffffffffffffffffffffffffffffffffffffffff82169050919050565b6000819050919050565b600063ffffffff82169050919050565b600060ff82169050919050565b60006129f5826129dd565b9050919050565b82818337600083830152505050565b60005b83811015612a29578082015181840152602081019050612a0e565b83811115612a38576000848401525b50505050565b6000612a4982612a64565b9050919050565b6000819050919050565b6000819050919050565b6000612a6f82612a91565b9050919050565b6000819050919050565b6000601f19601f8301169050919050565b60008160601b9050919050565b612aa78161296d565b8114612ab257600080fd5b50565b612abe81612999565b8114612ac957600080fd5b50565b612ad5816129c3565b8114612ae057600080fd5b50565b612aec816129cd565b8114612af757600080fd5b5056fea365627a7a7231582016cc7426675d0218c55185c3b7a586b202b37ae1ac55ca6c0a0bda6fe067e6d96c6578706572696d656e74616cf564736f6c6343000510004090066455b5cfc38f9caa4a48b4281f292c260feef01fd61037e56258a7795a1c7ad46076982ce6bb956936c6ab4dcfe05e6784586940ca544b9b2140e1eb523f009d20a7e7880e4e5bfa690f1b9004a27811cd9904af70420eefd6ea11ef7da129f58835ff56b89faa637bc9ac2efaab903402229f491d8d3485261cd068699b6ba58a1ddbbef6db51e8fe34e8a78e542d7ba351c21ea8d8f1d29f5d5d15939487e27f4416b0ca632c59efd1b1eb66511a5a0fbf615b766c5862d0bd8a3fe7a0e0da0fb2fe1fcb19e8f9996a8ea0fccde538175238fc8b0ee6f29af7f642773ebe8cd5402415a01451a840476b2fceb0e388d30d4b376c37fe401c2a2c2f941dad179c540c1c8ce030d460c4d983be9ab0b20f69144c1ae13f9383ea1c08504fb0bf321503efe43488310dd8dc77ec5b8349b8bfe97c2c560ea878de87c11e3d597f1fea742d73eec7f37be43949ef1a0d15c3f3e3fc0a8335617055ac91328ec22b50fc15b941d3d1624cd88bc25f3e941fddc6200689581bfec416b4b2cb73",
  "source": "// pragma solidity >=0.4.22 <=0.6.0;\npragma solidity ^0.5.16;\npragma experimental ABIEncoderV2;\n\ncontract write{\n    bytes [] public access_policy;\n    bytes [] public c1;\n    bytes [] public c2;\n    bytes [] public c3;\n    mapping(bytes32 => bytes32) ETID_val;\n    mapping(bytes32 => uint256) ETID_y;\n    // mapping(bytes => uint) XSET;\n    uint alpha;\n    uint beta;\n    mapping(uint => bytes []) public ST_w;\n    bytes public pp = hex\"90066455b5cfc38f9caa4a48b4281f292c260feef01fd61037e56258a7795a1c7ad46076982ce6bb956936c6ab4dcfe05e6784586940ca544b9b2140e1eb523f009d20a7e7880e4e5bfa690f1b9004a27811cd9904af70420eefd6ea11ef7da129f58835ff56b89faa637bc9ac2efaab903402229f491d8d3485261cd068699b6ba58a1ddbbef6db51e8fe34e8a78e542d7ba351c21ea8d8f1d29f5d5d15939487e27f4416b0ca632c59efd1b1eb66511a5a0fbf615b766c5862d0bd8a3fe7a0e0da0fb2fe1fcb19e8f9996a8ea0fccde538175238fc8b0ee6f29af7f642773ebe8cd5402415a01451a840476b2fceb0e388d30d4b376c37fe401c2a2c2f941dad179c540c1c8ce030d460c4d983be9ab0b20f69144c1ae13f9383ea1c08504fb0bf321503efe43488310dd8dc77ec5b8349b8bfe97c2c560ea878de87c11e3d597f1fea742d73eec7f37be43949ef1a0d15c3f3e3fc0a8335617055ac91328ec22b50fc15b941d3d1624cd88bc25f3e941fddc6200689581bfec416b4b2cb73\";\n    struct Set{\n        bytes [] values;\n        mapping(bytes => bool) is_in;\n    }\n    Set XSET;\n    // \n    bytes32 [] public returnR_u;\n    bytes [] public test_addr;\n    uint code;\n    bytes16 [] FF;\n    bytes16 stag;\n\n    function set_FF(bytes16 [] memory ff, uint len) public{\n        for(uint i=0;i<len;++i){\n            FF.push(ff[i]);\n        }\n    }\n\n    function set_stag(bytes16 s) public{\n        stag = s;\n    }\n\n    function random(uint number) public view returns(uint) {\n    return uint(keccak256(abi.encodePacked(block.timestamp,block.difficulty,\n        msg.sender))) % number;\n    }\n\n    function set_access_policy(bytes [] memory ap, uint len) public{\n        for(uint i=0;i<len;++i){\n            access_policy.push(ap[i]);\n        }\n    }\n\n    function set_c1(bytes [] memory _c1, uint len) public{\n        for(uint i=0;i<len;++i){\n            c1.push(_c1[i]);\n        }\n    }\n\n    function set_c2(bytes [] memory _c2, uint len) public{\n        for(uint i=0;i<len;++i){\n            c2.push(_c2[i]);\n        }\n    }\n\n    function set_c3(bytes [] memory _c3, uint len) public{\n        for(uint i=0;i<len;++i){\n            c3.push(_c3[i]);\n        }\n    }\n\n    function set_ETID_val(bytes32 [] memory addr, bytes32 [] memory val, uint len) public{\n        for(uint i=0;i<len;++i){\n            ETID_val[addr[i]] = val[i];\n        }\n    }\n\n    function set_ETID_y(bytes32 [] memory addr, uint256 [] memory y, uint len) public{\n        for(uint i=0;i<len;++i){\n            ETID_y[addr[i]] = y[i];\n        }\n    }\n\n    function XSET_add(bytes [] memory xtags, uint _len) public{\n        for(uint i = 0; i < _len; i++){\n            // bytes a = xtags[i];\n            if(!XSET.is_in[xtags[i]]){\n            XSET.values.push(xtags[i]);\n            XSET.is_in[xtags[i]] = true;\n            }\n        }\n    }\n\n    function XSET_exist(bytes memory b) public view returns(bool){\n        return XSET.is_in[b];\n    }\n\n    //function setP(bytes memory p) public{\n    //    pp = p;\n    //}\n\n    function get_returnR_u() public view returns(bytes32 [] memory){\n        return returnR_u;\n    }\n\n    function get_test_addr() public view returns(bytes [] memory){\n        return test_addr;\n    }\n\n    function get_code() public view returns(uint){\n        return code;\n    }\n\n    function set_ST_w(uint _c, bytes [] memory _searchtoken, uint _per_token_number) public{\n        for(uint j = 0; j < _per_token_number; j++){\n            // bytes m = _searchtoken[j];\n            ST_w[_c].push(_searchtoken[j]);\n        }\n    }\n\n    function expmod(bytes memory g, uint256 x, bytes memory p) public view returns ( bytes memory) {\n        require(g.length == 384,\"unqualified length of g\");\n        require(p.length == 384,\"unqualified length of p\");\n        bytes memory input = abi.encodePacked(bytes32(g.length),abi.encode(0x20),bytes32(p.length),g,bytes32(x),p);\n        bytes memory result = new bytes(384);\n        bytes memory pointer = new bytes(384);\n        assembly {\n            // staticcallgas\n            if iszero(staticcall(sub(gas, 2000), 0x05, add(input,0x20), 0x380, add(pointer,0x20), 0x180 )) {\n                revert(0, 0)\n            }\n        }\n        for(uint i =0; i<12;i++) {\n            bytes32 value;\n            uint256 start = 32*i;\n            assembly {\n                value := mload(add(add(pointer,0x20),start))\n            }\n            for(uint j=0;j<32;j++) {\n                result[start+j] = value[j];\n            }\n        }\n        require(result.length == 384,\"unqualified length of result\");\n        return result;\n    }\n\n    function concate(bytes16 _a, bytes16 _b, bytes memory _c, bytes memory _d) public view returns (bytes memory){\n        return abi.encodePacked(_a, _b, _c, _d);\n    }\n\n    function toBytes(uint256 x) public returns (bytes memory b) {\n        b = new bytes(32);\n        assembly { mstore(add(b, 32), x) }\n    }\n\n\n    function TaskMatching(uint32 cnt_max,uint FF_len,uint n) public{\n        // return ;\n        //for(int i =0;i<25;++i){\n        //    test_addr.push(ST_w[1][1]);\n        //}\n        // return ;\n        code = 0;\n        for(uint f=0;f<FF_len;++f){\n        //  for(uint f=0;f<1;++f){\n            for(uint i=1;i<=cnt_max;++i){\n                // if(i == 4 )return ;\n                // if(f == 2) return;\n                bytes  memory i_tem = new bytes(15);\n                // return ;\n                // if(f == 1) return;\n                bytes  memory b = toBytes(i);\n                // return ;\n                // if(f == 1) return;\n                for(uint j=0;j<15;++j){\n                    i_tem[14-j] = b[31-j];\n                }\n                // return ;\n                // if(f == 1) return;\n                bytes  memory delta0 = new bytes(1);\n                delta0[0]=0x00;\n                bytes memory concatenation1 = concate(stag, FF[f], i_tem, delta0);\n                // test_addr.push(concatenation1);\n                bytes32 addr = keccak256(abi.encodePacked(concatenation1));\n                // test_addr.push(concatenation1);\n                // return ;\n                // if(f == 1) return;\n                if(ETID_val[addr]!=bytes32(0)){\n                    code =1;\n                    // return ;\n                    bytes32 val = ETID_val[addr];\n                    uint256 y = ETID_y[addr];\n                    uint match_cnt = 0;\n                    for(uint j=1;j<n;++j){\n                        bytes memory token_c_j = ST_w[i][j];\n                        // return ;\n                        // if (f==1 && i==3) return ;\n                        //test_addr.push(token_c_j);\n                        //test_addr.push(token_c_j);\n                        // test_addr.push(token_c_j);\n                        // if (f==1 && i==2) return ;\n                        //bytes memory test_token_y;\n                        //for(uint k=1;k<9;++k){\n                        //    test_token_y = expmod(token_c_j, y, pp);\n                        //}\n                        bytes memory test_token_y = expmod(token_c_j, y, pp);\n                        test_addr.push(test_token_y);\n                        // if (f==1 && i==2) return ;\n                        // if(f == 1) return;\n                        // if(i == 3 )return ;\n                        // return ;\n                        if(XSET_exist(test_token_y)){\n                            code = 2;\n                            match_cnt = match_cnt +1;\n                        }else{\n                            break;\n                        }\n                        // return ;\n                    }\n                    // if(f == 1) return;\n                    // if(i == 3 )return ;\n                    // if (f==1 && i==3) return ;\n                    // return ;\n                    if(match_cnt == n-1){\n                        // return ;\n                        // if(f == 1) return;\n                        // if(i == 3 )return ;\n                        code = 2;\n                        // return ;\n                        // bytes1 delt = 0x01;\n                        bytes  memory delta1 = new bytes(1);\n                        delta1[0]=0x01;\n                        bytes memory concatenation2 = concate(stag, FF[f], i_tem, delta1);\n                        bytes32 msk = keccak256(abi.encodePacked(concatenation2));\n                        bytes32 tid = val ^ msk;\n                        returnR_u.push(tid);\n                    }\n                }else{\n                    break;\n                }\n            }\n\n        }\n    }\n}",
  "sourcePath": "/Users/yuzhemeng/PycharmProjects/PFTMcrowd/contracts/PFTMcrowd.sol",
  "compiler": {
    "name": "solc",
    "version": "0.5.16+commit.9c3226ce.Emscripten.clang"
  },
  "schemaVersion": "3.4.16",
  "updatedAt": "2024-01-23T12:08:54.085Z",
  "devdoc": {
    "methods": {}
  },
  "userdoc": {
    "methods": {}
  }
}